{
  "contractName": "ToDoList",
  "abi": [
    {
      "anonymous": false,
      "inputs": [
        {
          "indexed": false,
          "internalType": "uint256",
          "name": "id",
          "type": "uint256"
        },
        {
          "indexed": false,
          "internalType": "bool",
          "name": "completed",
          "type": "bool"
        }
      ],
      "name": "TaskCompleted",
      "type": "event"
    },
    {
      "anonymous": false,
      "inputs": [
        {
          "indexed": false,
          "internalType": "uint256",
          "name": "id",
          "type": "uint256"
        },
        {
          "indexed": false,
          "internalType": "string",
          "name": "content",
          "type": "string"
        },
        {
          "indexed": false,
          "internalType": "bool",
          "name": "completed",
          "type": "bool"
        }
      ],
      "name": "TaskCreated",
      "type": "event"
    },
    {
      "inputs": [
        {
          "internalType": "address",
          "name": "",
          "type": "address"
        },
        {
          "internalType": "uint256",
          "name": "",
          "type": "uint256"
        }
      ],
      "name": "tasks",
      "outputs": [
        {
          "internalType": "uint256",
          "name": "id",
          "type": "uint256"
        },
        {
          "internalType": "string",
          "name": "content",
          "type": "string"
        },
        {
          "internalType": "bool",
          "name": "completed",
          "type": "bool"
        }
      ],
      "stateMutability": "view",
      "type": "function",
      "constant": true
    },
    {
      "inputs": [
        {
          "internalType": "address",
          "name": "",
          "type": "address"
        }
      ],
      "name": "tasksCount",
      "outputs": [
        {
          "internalType": "uint256",
          "name": "",
          "type": "uint256"
        }
      ],
      "stateMutability": "view",
      "type": "function",
      "constant": true
    },
    {
      "inputs": [
        {
          "internalType": "string",
          "name": "_content",
          "type": "string"
        }
      ],
      "name": "createTask",
      "outputs": [],
      "stateMutability": "nonpayable",
      "type": "function"
    },
    {
      "inputs": [
        {
          "internalType": "uint256",
          "name": "_id",
          "type": "uint256"
        }
      ],
      "name": "toggleCompleted",
      "outputs": [],
      "stateMutability": "nonpayable",
      "type": "function"
    }
  ],
  "bytecode": "0x608060405234801561001057600080fd5b50610d54806100206000396000f3fe608060405234801561001057600080fd5b506004361061004c5760003560e01c8063111002aa14610051578063455f50241461006d5780637149d2e4146100895780637b219c39146100bb575b600080fd5b61006b60048036038101906100669190610727565b6100eb565b005b610087600480360381019061008291906107a6565b6102e9565b005b6100a3600480360381019061009e9190610831565b6104e9565b6040516100b29392919061091a565b60405180910390f35b6100d560048036038101906100d09190610958565b6105b5565b6040516100e29190610985565b60405180910390f35b6000803373ffffffffffffffffffffffffffffffffffffffff1673ffffffffffffffffffffffffffffffffffffffff168152602001908152602001600020600081548092919061013a906109cf565b919050555060405180606001604052806000803373ffffffffffffffffffffffffffffffffffffffff1673ffffffffffffffffffffffffffffffffffffffff16815260200190815260200160002054815260200182815260200160001515815250600160003373ffffffffffffffffffffffffffffffffffffffff1673ffffffffffffffffffffffffffffffffffffffff16815260200190815260200160002060008060003373ffffffffffffffffffffffffffffffffffffffff1673ffffffffffffffffffffffffffffffffffffffff1681526020019081526020016000205481526020019081526020016000206000820151816000015560208201518160010190816102489190610c23565b5060408201518160020160006101000a81548160ff0219169083151502179055509050507f05d0fb833127fc08168556d0e7ca9554fc3f6bc843b3b7d2bf1c35aea6bab6606000803373ffffffffffffffffffffffffffffffffffffffff1673ffffffffffffffffffffffffffffffffffffffff168152602001908152602001600020548260006040516102de9392919061091a565b60405180910390a150565b6000600160003373ffffffffffffffffffffffffffffffffffffffff1673ffffffffffffffffffffffffffffffffffffffff16815260200190815260200160002060008381526020019081526020016000206040518060600160405290816000820154815260200160018201805461036090610a46565b80601f016020809104026020016040519081016040528092919081815260200182805461038c90610a46565b80156103d95780601f106103ae576101008083540402835291602001916103d9565b820191906000526020600020905b8154815290600101906020018083116103bc57829003601f168201915b505050505081526020016002820160009054906101000a900460ff161515151581525050905080604001511581604001901515908115158152505080600160003373ffffffffffffffffffffffffffffffffffffffff1673ffffffffffffffffffffffffffffffffffffffff16815260200190815260200160002060008481526020019081526020016000206000820151816000015560208201518160010190816104849190610c23565b5060408201518160020160006101000a81548160ff0219169083151502179055509050507fe21fa966ca5cd02748c0752352d18c48165e61cb55b4c29cccf924b5a95fcff18282604001516040516104dd929190610cf5565b60405180910390a15050565b60016020528160005260406000206020528060005260406000206000915091505080600001549080600101805461051f90610a46565b80601f016020809104026020016040519081016040528092919081815260200182805461054b90610a46565b80156105985780601f1061056d57610100808354040283529160200191610598565b820191906000526020600020905b81548152906001019060200180831161057b57829003601f168201915b5050505050908060020160009054906101000a900460ff16905083565b60006020528060005260406000206000915090505481565b6000604051905090565b600080fd5b600080fd5b600080fd5b600080fd5b6000601f19601f8301169050919050565b7f4e487b7100000000000000000000000000000000000000000000000000000000600052604160045260246000fd5b610634826105eb565b810181811067ffffffffffffffff82111715610653576106526105fc565b5b80604052505050565b60006106666105cd565b9050610672828261062b565b919050565b600067ffffffffffffffff821115610692576106916105fc565b5b61069b826105eb565b9050602081019050919050565b82818337600083830152505050565b60006106ca6106c584610677565b61065c565b9050828152602081018484840111156106e6576106e56105e6565b5b6106f18482856106a8565b509392505050565b600082601f83011261070e5761070d6105e1565b5b813561071e8482602086016106b7565b91505092915050565b60006020828403121561073d5761073c6105d7565b5b600082013567ffffffffffffffff81111561075b5761075a6105dc565b5b610767848285016106f9565b91505092915050565b6000819050919050565b61078381610770565b811461078e57600080fd5b50565b6000813590506107a08161077a565b92915050565b6000602082840312156107bc576107bb6105d7565b5b60006107ca84828501610791565b91505092915050565b600073ffffffffffffffffffffffffffffffffffffffff82169050919050565b60006107fe826107d3565b9050919050565b61080e816107f3565b811461081957600080fd5b50565b60008135905061082b81610805565b92915050565b60008060408385031215610848576108476105d7565b5b60006108568582860161081c565b925050602061086785828601610791565b9150509250929050565b61087a81610770565b82525050565b600081519050919050565b600082825260208201905092915050565b60005b838110156108ba57808201518184015260208101905061089f565b60008484015250505050565b60006108d182610880565b6108db818561088b565b93506108eb81856020860161089c565b6108f4816105eb565b840191505092915050565b60008115159050919050565b610914816108ff565b82525050565b600060608201905061092f6000830186610871565b818103602083015261094181856108c6565b9050610950604083018461090b565b949350505050565b60006020828403121561096e5761096d6105d7565b5b600061097c8482850161081c565b91505092915050565b600060208201905061099a6000830184610871565b92915050565b7f4e487b7100000000000000000000000000000000000000000000000000000000600052601160045260246000fd5b60006109da82610770565b91507fffffffffffffffffffffffffffffffffffffffffffffffffffffffffffffffff8203610a0c57610a0b6109a0565b5b600182019050919050565b7f4e487b7100000000000000000000000000000000000000000000000000000000600052602260045260246000fd5b60006002820490506001821680610a5e57607f821691505b602082108103610a7157610a70610a17565b5b50919050565b60008190508160005260206000209050919050565b60006020601f8301049050919050565b600082821b905092915050565b600060088302610ad97fffffffffffffffffffffffffffffffffffffffffffffffffffffffffffffffff82610a9c565b610ae38683610a9c565b95508019841693508086168417925050509392505050565b6000819050919050565b6000610b20610b1b610b1684610770565b610afb565b610770565b9050919050565b6000819050919050565b610b3a83610b05565b610b4e610b4682610b27565b848454610aa9565b825550505050565b600090565b610b63610b56565b610b6e818484610b31565b505050565b5b81811015610b9257610b87600082610b5b565b600181019050610b74565b5050565b601f821115610bd757610ba881610a77565b610bb184610a8c565b81016020851015610bc0578190505b610bd4610bcc85610a8c565b830182610b73565b50505b505050565b600082821c905092915050565b6000610bfa60001984600802610bdc565b1980831691505092915050565b6000610c138383610be9565b9150826002028217905092915050565b610c2c82610880565b67ffffffffffffffff811115610c4557610c446105fc565b5b610c4f8254610a46565b610c5a828285610b96565b600060209050601f831160018114610c8d5760008415610c7b578287015190505b610c858582610c07565b865550610ced565b601f198416610c9b86610a77565b60005b82811015610cc357848901518255600182019150602085019450602081019050610c9e565b86831015610ce05784890151610cdc601f891682610be9565b8355505b6001600288020188555050505b505050505050565b6000604082019050610d0a6000830185610871565b610d17602083018461090b565b939250505056fea264697066735822122048161fe900979227752ff45c477c900dd3857d45b7597af13464444d9ee21a8f64736f6c63430008100033",
  "immutableReferences": {},
  "source": "// SPDX-License-Identifier: MIT\r\npragma solidity ^0.8.16;\r\n\r\ncontract ToDoList {\r\n\r\n    struct Task {\r\n        uint id;\r\n        string content;\r\n        bool completed;\r\n    }\r\n\r\n    mapping(address => uint) public tasksCount;\r\n    mapping(address => mapping(uint => Task)) public tasks;\r\n\r\n    event TaskCompleted(\r\n        uint id,\r\n        bool completed\r\n    );\r\n\r\n    event TaskCreated(\r\n        uint id,\r\n        string content,\r\n        bool completed\r\n    );\r\n\r\n    function createTask(string memory _content) public {\r\n        tasksCount[msg.sender] ++;\r\n        tasks[msg.sender][tasksCount[msg.sender]] = Task(tasksCount[msg.sender], _content, false);\r\n        emit TaskCreated(tasksCount[msg.sender], _content, false);\r\n    }\r\n\r\n    function toggleCompleted(uint _id) public {\r\n        Task memory _task = tasks[msg.sender][_id];\r\n        _task.completed = !_task.completed;\r\n        tasks[msg.sender][_id] = _task;\r\n        emit TaskCompleted(_id, _task.completed);\r\n    }\r\n}",
  "sourcePath": "P:\\Blockchain\\toDoList\\contracts\\ToDoList.sol",
  "compiler": {
    "name": "solc",
    "version": "0.8.16+commit.07a7930e.Emscripten.clang"
  },
  "schemaVersion": "3.4.16",
  "updatedAt": "2025-02-16T12:59:01.171Z",
  "networkType": "ethereum",
  "devdoc": {
    "kind": "dev",
    "methods": {},
    "version": 1
  },
  "userdoc": {
    "kind": "user",
    "methods": {},
    "version": 1
  }
}